:020000040800F2
:1000000000280020B91D0008DD1C0008E31C0008C2
:10001000E91C0008EF1C0008F51C000800000000A7
:10002000000000000000000000000000FB1C0008B1
:10003000071D000800000000131D00081F1D000818
:10004000011E0008011E0008011E0008011E000814
:10005000011E0008011E0008011E0008011E000804
:10006000011E0008011E0008011E0008011E0008F4
:10007000011E0008011E0008011E0008011E0008E4
:10008000011E0008011E0008011E0008011E0008D4
:10009000011E0008011E0008011E0008011E0008C4
:1000A000011E0008011E0008011E0008011E0008B4
:1000B0002D1D0008011E000800000000011E0008A0
:1000C000011E00080000000000000000011E0008E2
:1000D00000000000011E0008011E000800000000D2
:1000E000011E0008011E0008011E0008000000009B
:1000F0000000000000000000000000000000000000
:0C01000000000000000000005FF808F1A3
:10010C0010B5054C237833B9044B13B10448AFF345
:10011C0000800123237010BDC000002000000000EF
:10012C00F03C000808B5034B1BB103490348AFF37F
:10013C00008008BD00000000C4000020F03C000856
:10014C0080B500AF114B1B78012B0DD1104B1B68E8
:10015C00184600F023F80F4B1B68184600F09CF86B
:10016C00012000F015F90EE00B4B1B68184600F04F
:10017C0015F8094B1B68184600F08EF8034B1B78DA
:10018C00184600F005F900BF80BD00BF4C000020F0
:10019C00FC00002000010020F800002080B584B095
:1001AC0000AF78607B68394A82FB03129210DB1730
:1001BC00D31AFB607A68354B83FB02139910D31763
:1001CC00C91A0B469B000B445B00D31ABB60FB683F
:1001DC00DBB203F00103DBB21A464FF480512C481A
:1001EC0002F02FF9FB685B10DBB203F00103DBB20A
:1001FC001A464FF40051264802F023F9FB689B1075
:10020C00DBB203F00103DBB21A464FF48041204805
:10021C0002F017F9FB68DB10DBB203F00103DBB271
:10022C001A464FF400411A4802F00BF9BB68DBB2D6
:10023C0003F00103DBB21A460121164802F001F962
:10024C00BB685B10DBB203F00103DBB21A46022180
:10025C00104802F0F6F8BB689B10DBB203F0010308
:10026C00DBB21A4604210B4802F0EBF8BB68DB103A
:10027C00DBB203F00103DBB21A460821054802F099
:10028C00E0F800BF1037BD4680BD00BF67666666EC
:10029C0000080140000C014080B584B000AF7860CC
:1002AC007B68394A82FB03129210DB17D31AFB606E
:1002BC007A68354B83FB02139910D317C91A0B4676
:1002CC009B000B445B00D31ABB60FB68DBB203F0F2
:1002DC000103DBB21A4610212C4802F0B2F8FB687D
:1002EC005B10DBB203F00103DBB21A462021274876
:1002FC0002F0A7F8FB689B10DBB203F00103DBB242
:10030C001A464021214802F09CF8FB68DB10DBB256
:10031C0003F00103DBB21A4680211C4802F091F86D
:10032C00BB68DBB203F00103DBB21A464FF48071F9
:10033C00164802F086F8BB685B10DBB203F00103D1
:10034C00DBB21A464FF40071104802F07AF8BB6821
:10035C009B10DBB203F00103DBB21A464FF4806151
:10036C000A4802F06EF8BB68DB10DBB203F0010345
:10037C00DBB21A464FF40061044802F062F800BF89
:10038C001037BD4680BD00BF67666666000C014035
:10039C0080B582B000AF78607B68DBB203F00103FC
:1003AC00DBB21A464FF48051154802F04AF87B68CC
:1003BC005B10DBB203F00103DBB21A464FF40051C1
:1003CC000F4802F03EF87B689B10DBB203F0010390
:1003DC00DBB21A464FF48041094802F032F87B68D0
:1003EC00DB10DBB203F00103DBB21A464FF4004121
:1003FC00034802F026F800BF0837BD4680BD00BF99
:10040C00000C014080B500AF00F058F800BF80BD73
:10041C0080B500AF00F080F900BF80BD80B500AFA3
:10042C0000F06AFEFFF78CFE00F012FE00BF80BDEC
:10043C0080B400AF064B1B68012B04D1044B002287
:10044C001A60012300E000231846BD4680BC7047AB
:10045C00DC00002080B400AF064B5B68012B04D19C
:10046C00044B00225A60012300E000231846BD46CD
:10047C0080BC7047DC00002080B400AF064B9B684A
:10048C00012B04D1044B00229A60012300E00023CD
:10049C001846BD4680BC7047DC00002080B483B099
:1004AC0000AF7860044A7B68012142F8231000BF3A
:1004BC000C37BD4680BC7047DC00002080B582B094
:1004CC0000AF564B1B68002B05DD544B1B68013BE2
:1004DC00524A13609EE000237B6097E0504A7B6891
:1004EC0052F823204F497B6841F823204E4A7B6801
:1004FC0052F823204A497B6841F823207B68022B61
:10050C0021D07B68022B2ADC7B68002B03D07B6814
:10051C00012B0CD023E04FF40071444801F07AFF1A
:10052C0003461946404A7B6842F8231017E04FF403
:10053C0080613E4801F06EFF034619463A4A7B68DB
:10054C0042F823100BE04FF40061384801F062FFD1
:10055C0003461946344A7B6842F8231000BF304AE0
:10056C007B6852F8232030497B6851F823309A423B
:10057C0049D12B4A7B6852F823202A497B6851F8D1
:10058C0023309A423FD12A4A7B6852F823202549CE
:10059C007B6851F823309A4216D0224A7B6852F875
:1005AC00232023497B6841F82320214A7B6852F899
:1005BC002330002B27D17868FFF770FF1D4A7B682A
:1005CC00642142F823101EE01A4A7B6852F823304B
:1005DC005A1E18497B6841F82320164A7B6852F84A
:1005EC002330002B0FD1134A7B68642142F823106F
:1005FC000F4A7B6852F82330002B04D10E4A7B68DB
:10060C00012142F823107B6801337B607B68022B4D
:10061C007FF764AF0837BD4680BD00BF3C000020AB
:10062C000C000020180000200000002000080140F1
:10063C002400002030000020E800002080B582B0AB
:10064C0000AF264B05221A60254B02221A60254B5F
:10065C0003221A60244B01221A70244B00221A70B8
:10066C00234B00221A60234B00221A6000F0C4FDB9
:10067C0000237B600CE0204A7B68134400221A7034
:10068C001E4A7B68134400221A707B6801337B601E
:10069C007B68022BEFDD1A4B00221A60194B0022EB
:1006AC001A60194B00225A60174B5B68164A13608C
:1006BC00164B00225A60154B5B68144A1360144B9E
:1006CC0000225A60124B5B68114A1360114B0022D6
:1006DC001A6000BF0837BD4680BD00BF4000002037
:1006EC0044000020480000204C00002004010020A1
:1006FC00FC00002000010020280100202C0100201B
:10070C00080100200C01002010010020180100201D
:10071C0020010020F800002080B500AF00F020F888
:10072C000E4B1B78013B032B16D801A252F823F079
:10073C004D07000853070008590700085F07000819
:10074C0000F054F808E000F027F905E000F074F927
:10075C0002E000F0C1F900BF00BF80BD4C000020DA
:10076C0080B582B000AF00237B6032E01D4A7B680D
:10077C00134419781C4A7B6813440A461A700023E8
:10078C003B607B68022B11D07B68022B12DC7B68F0
:10079C00002B03D07B68012B04D00BE0FFF748FE45
:1007AC00386007E0FFF756FE386003E0FFF764FEA1
:1007BC00386000BF3B68002B14BF01230023DBB261
:1007CC001946084A7B6813440A461A707B68013341
:1007DC007B607B68022BC9DD00BF00BF0837BD46BC
:1007EC0080BD00BF2C0100202801002080B500AF87
:1007FC005E4B1B78012B0DD15D4B1B78002B09D167
:10080C005C4B02221A705C4B1B685C4A136000F054
:10081C00F3FCAAE05A4B1B680133594A1360584B3E
:10082C001B68632B40F3A080554B00221A60554B7C
:10083C001B78042B00F2898001A252F823F000BF30
:10084C006108000879080008AD080008E1080008F4
:10085C00150900084B4B01221A70474B1B684A4A7A
:10086C0013604A4B1B684A4A13606EE0464B1B6888
:10087C00013B454A1360464B1B68013B444A1360DD
:10088C00434B1B68002B59DC3E4B02221A70414B28
:10089C001B683D4A13603F4B1B683D4A13604DE09B
:1008AC00394B1B68013B384A1360394B1B68013BC1
:1008BC00374A1360364B1B68002B41DC314B03224B
:1008CC001A70324B1B68304A13602B4B1B68304A32
:1008DC00136035E02C4B1B68013B2B4A13602C4BEF
:1008EC001B68013B2A4A1360274B1B68002B29DC31
:1008FC00244B04221A70274B1B68234A1360254B88
:10090C001B68234A13601DE01F4B1B68013B1E4AEA
:10091C0013601F4B1B68013B1D4A13601C4B1B686B
:10092C00002B11DC174B01221A70134B1B68164A53
:10093C001360164B1B68164A136005E000BF04E0F9
:10094C0000BF02E000BF00E000BF0F4B1B68002B94
:10095C0002DA0D4B00221A600D4B1B68002B04DAD7
:10096C000B4B00221A6000E000BF80BD2C01002060
:10097C00280100204C00002040000020F80000203E
:10098C00F400002004010020FC000020480000209E
:10099C00000100204400002080B500AF1F4B1B78E5
:1009AC00012B0BD11E4B1B78002B07D11D4B0322A7
:1009BC001A701D4B1B681D4A13602EE0174B5B7899
:1009CC00012B0FD1164B5B78002B0BD1174B1B68EF
:1009DC000133164A1360154B1B68632B02DD134B56
:1009EC0001221A600D4B9B78012B13D10C4B9B7879
:1009FC00002B0FD10D4B1B680D4A1360002000F02B
:100A0C00BBF8084B01221A700A4B00221A7000F036
:100A1C00F3FB02E0002000F0C5FC80BD2C0100209F
:100A2C00280100204C00002044000020F800002089
:100A3C00400000200401002080B500AF1F4B1B7844
:100A4C00012B0BD11E4B1B78002B07D11D4B042205
:100A5C001A701D4B1B681D4A13602EE0174B5B78F8
:100A6C00012B0FD1164B5B78002B0BD1174B1B684E
:100A7C000133164A1360154B1B68632B02DD134BB5
:100A8C0001221A600D4B9B78012B13D10C4B9B78D8
:100A9C00002B0FD10D4B1B680D4A1360012000F089
:100AAC006BF8084B01221A700A4B00221A7000F0E6
:100ABC00A3FB02E0012000F075FC80BD2C0100209E
:100ACC00280100204C00002048000020F8000020E5
:100ADC00440000200401002080B500AF204B1B789F
:100AEC00012B0CD11F4B1B78002B08D11E4B012264
:100AFC001A701E4B00221A7000F07EFB2EE0184B71
:100B0C005B78012B0FD1174B5B78002B0BD1184B5B
:100B1C001B680133164A1360154B1B68632B02DDEF
:100B2C00134B01221A600E4B9B78012B13D10D4BEA
:100B3C009B78002B0FD10E4B1B680E4A13600220C2
:100B4C0000F01AF8084B01221A70084B00221A7098
:100B5C0000F052FB02E0022000F024FC80BD00BF3C
:100B6C002C010020280100204C0000200401002052
:100B7C00F80000204800002080B483B000AF7860FB
:100B8C00454B1A68454B1B681A44454B1B689A42E7
:100B9C0001D100237AE07B68022B4FD07B68022BBB
:100BAC0073DC7B68002B03D07B68012B19D06CE0C5
:100BBC003B4B1A68394B1B68D31A374A1360364BB8
:100BCC001B68002B03DD344B1B68632B58DD344B47
:100BDC0005221A60304B03221A60304B02221A6035
:100BEC004EE02E4B1B6804332B4A13602A4B1A68B9
:100BFC002A4B1B6813442A4A1360294B1B68632B2E
:100C0C000ADD264B30221A60244B1B680333224A20
:100C1C001360234B63221A601F4B1B68002B03DDF0
:100C2C001D4B1B68632B2DDD1D4B05221A601A4BC7
:100C3C0003221A60194B02221A6023E0164B1A6821
:100C4C00164B1B681344164A1360154B1B68632B19
:100C5C001ADD114B1B68C3F16303104A1360104B70
:100C6C0063221A600D4B1B68002B0DDC0C4B05220C
:100C7C001A60094B03221A60084B02221A6003E027
:100C8C0000BF02E000BF00E000BF012318460C3794
:100C9C00BD4680BC704700BF4800002044000020C7
:100CAC004000002080B483B000AF00237B6002E0E2
:100CBC007B6801337B607B68092BF9DD00BF00BFCB
:100CCC000C37BD4680BC704780B500AF01220121B6
:100CDC00024801F0B6FB00BF80BD00BF0008014018
:100CEC0080B500AF00220121024801F0AAFB00BF31
:100CFC0080BD00BF0008014080B500AF0122022179
:100D0C00024801F09EFB00BF80BD00BF00080140FF
:100D1C0080B500AF00220221024801F092FB00BF17
:100D2C0080BD00BF0008014080B500AFFFF7E4FFB5
:100D3C00FFF7B8FFFFF7C8FFFFF7B4FFFFF7E8FFB7
:100D4C00FFF7B0FFFFF7CCFFFFF7ACFF00BF80BD94
:100D5C0080B500AFFFF7DCFFFFF7A4FFFFF7B4FF90
:100D6C00FFF7A0FFFFF7C8FFFFF79CFF00BF80BD98
:100D7C0080B584B000AF0346FB710723FB6019E01C
:100D8C00FA79FB6842FA03F303F00103002B02D05B
:100D9C00FFF7B2FF01E0FFF7BBFFFFF783FFFFF7A1
:100DAC0093FFFFF77FFFFFF79BFFFFF77BFFFB68CE
:100DBC00013BFB60FB68002BE2DAFFF79DFFFFF7BE
:100DCC0071FFFFF781FFFFF76DFFFFF789FFFFF75B
:100DDC0069FF00BF1037BD4680BD80B584B000AF41
:100DEC0003463960FB711346BB71FFF79DFFFB791E
:100DFC005B00DBB21846FFF7BBFF0023FB7309E077
:100E0C00FB7B3A6813441B781846FFF7B1FFFB7B5A
:100E1C000133FB73FA7BBB799A42F1D3FFF798FF4E
:100E2C0000BF1037BD4680BD80B584B000AF03460F
:100E3C00FB71FB7923F00F03FB73FB791B01BB7375
:100E4C00FB7B43F00C03DBB23B72FB7B43F00803F0
:100E5C00DBB27B72BB7B43F00C03DBB2BB72BB7BA4
:100E6C0043F00803DBB2FB7207F1080304221946B6
:100E7C002720FFF7B2FF00BF1037BD4680BD80B5FD
:100E8C0084B000AF0346FB71FB7923F00F03FB73B7
:100E9C00FB791B01BB73FB7B43F00D03DBB23B7295
:100EAC00FB7B43F00903DBB27B72BB7B43F00D038E
:100EBC00DBB2BB72BB7B43F00903DBB2FB7207F105
:100ECC000803042219462720FFF787FF00BF1037BD
:100EDC00BD4680BD80B586B000AF07F10803002287
:100EEC001A605A609A60DA60274B9B69264A43F075
:100EFC0004039361244B9B6903F004037B607B68C0
:100F0C000323BB601123FB6000233B6103237B6144
:100F1C0007F1080319461D4801F002F9FFF7ECFE32
:100F2C00FFF7D2FE322000F0C9FF3320FFF77CFF21
:100F3C003220FFF779FF322000F0C0FF2820FFF7A6
:100F4C0073FF322000F0BAFF0120FFF76DFF322053
:100F5C0000F0B4FF0620FFF767FF322000F0AEFF71
:100F6C000C20FFF761FF322000F0A8FF0220FFF7F2
:100F7C005BFF322000F0A2FF8020FFF755FF00BF7F
:100F8C001837BD4680BD00BF00100240000801406C
:100F9C0080B582B000AF786006E07B685A1C7A603E
:100FAC001B781846FFF76BFF7B681B78002BF4D17E
:100FBC0000BF00BF0837BD4680BD80B584B000AF10
:100FCC00786039607B68012B04D13B68DBB2803BD5
:100FDC00FB7308E03B68DBB24033DBB25BB263F01F
:100FEC007F035BB2FB73FB7B1846FFF71DFF00BF53
:100FFC001037BD4680BD000080B400AF0E4B1B788F
:10100C00013B032B12D801A252F823F0291000083F
:10101C002D1000083110000835100008074B06E0B1
:10102C00074B04E0074B02E0074B00E0074B184668
:10103C00BD4680BC704700BF4C000020083D000836
:10104C00103D0008183D0008203D0008283D000810
:10105C0080B588B002AF00210120FFF7AEFF1D4B19
:10106C001B78012B0FD1FFF7C7FF01461A4B1B68EA
:10107C001A4A1268381D019200930B46184A112126
:10108C0002F0E2F90BE0FFF7B7FF0246154B1B68C5
:10109C00381D00931346144A112102F0D5F93B1D5B
:1010AC001846FFF775FF00210220FFF786FF0F4B54
:1010BC001A680F4B1B68381D009313460D4A1121FB
:1010CC0002F0C2F93B1D1846FFF762FF00BF18374C
:1010DC00BD4680BD4C000020400000204800002090
:1010EC00303D0008F8000020443D0008FC000020C2
:1010FC0000010020583D000880B500AF394B1B782B
:10110C00012B48D1384B1B78042B69D801A252F81B
:10111C0023F000BF351100083B11000855110008E1
:10112C006F1100088911000800F066F858E00023E0
:10113C0000220121002000F085F80123002200216B
:10114C00012000F07FF84BE0002300220121002059
:10115C0000F078F8002301220021012000F072F841
:10116C003EE0012300220021002000F06BF8002358
:10117C0000220121012000F065F831E0002301225A
:10118C000021002000F05EF8002300220121012044
:10119C0000F058F824E0154B1B680021184600F0AD
:1011AC00A5F8124B5B680121184600F09FF8104B14
:1011BC001B680021184600F0B7F80D4B5B68012145
:1011CC00184600F0B1F80B4B1B680021184600F0D4
:1011DC00CBF8084B5B680121184600F0C5F8FFE717
:1011EC0000BF80BD4C000020040100201001002035
:1011FC00200100201801002080B500AF0122082139
:10120C000F4801F01EF9012220210D4801F019F9B7
:10121C00012210210A4801F014F90122402108484A
:10122C0001F00FF901224FF48071054801F009F922
:10123C0001228021024801F004F900BF80BD00BFEB
:10124C000008014080B584B000AFF860B9607A60E6
:10125C003B60FB68002B21D1BB68002B0CBF01232A
:10126C000023DBB21A4608211F4801F0EAF87B681C
:10127C00002B0CBF01230023DBB21A4620211A4895
:10128C0001F0DFF83B68002B0CBF01230023DBB21D
:10129C001A461021144801F0D4F821E0BB68002B49
:1012AC000CBF01230023DBB21A4640210E4801F08B
:1012BC00C8F87B68002B0CBF01230023DBB21A4655
:1012CC004FF48071084801F0BCF83B68002B0CBF50
:1012DC0001230023DBB21A468021034801F0B1F848
:1012EC0000BF1037BD4680BD0008014080B584B0FA
:1012FC0000AF786039603B68002B01D1082300E017
:10130C004023FB817B68002B0CBF01230023DBB245
:10131C001A46FB891946034801F093F800BF1037B1
:10132C00BD4680BD0008014080B584B000AF786038
:10133C0039603B68002B01D1202301E04FF480730E
:10134C00FB817B68002B0CBF01230023DBB21A4608
:10135C00FB891946034801F074F800BF1037BD46ED
:10136C0080BD00BF0008014080B584B000AF78603C
:10137C0039603B68002B01D1102300E08023FB81F6
:10138C007B68002B0CBF01230023DBB21A46FB89C0
:10139C001946034801F055F800BF1037BD4680BD13
:1013AC000008014080B483B000AF78602B4B1B6801
:1013BC0001332A4A1360294B1B68182B49DD274B34
:1013CC0000221A60264B1B68002B0CBF0123002344
:1013DC00DBB21A46224B1A60224B00225A60214B78
:1013EC005B68204A1360204B00225A601E4B5B68DE
:1013FC001D4A13601D4B00225A601C4B5B681B4A34
:10140C0013607B68022B1BD07B68022B22DC7B6871
:10141C00002B03D07B68012B09D01BE0104B1B6801
:10142C00104A53600F4B5B680E4A136012E00C4B72
:10143C001B680E4A53600D4B5B680C4A136009E045
:10144C00074B1B68084A5360074B5B68064A1360DE
:10145C0000E000BF0C37BD4680BC7047080100207F
:10146C000C01002010010020180100202001002098
:10147C0080B582B000AF78607B681B68B3F1804F99
:10148C0001D100F00BFB00BF0837BD4680BD00004A
:10149C0080B500AF00F0B0FC00F028F800F0AEF81A
:1014AC0000F060F800F014F9FFF7C8F8FFF712FD30
:1014BC0001220021094800F065F9012200210848A9
:1014CC0000F060F905220021064800F05BF906489F
:1014DC0001F0FCFB00F00AFBFCE700BF1104000864
:1014EC001D040008290400084401002080B590B0B8
:1014FC0000AF07F1180328220021184601F09CFFC9
:10150C003B1D00221A605A609A60DA601A6102234D
:10151C00BB610123BB621023FB6200237B6307F1D9
:10152C001803184600F0A6FF0346002B01D000F06C
:10153C00C9F80F237B600023BB600023FB600023F2
:10154C003B6100237B613B1D0021184601F012FA20
:10155C000346002B01D000F0B5F800BF4037BD4664
:10156C0080BD000080B586B000AF07F108030022F3
:10157C001A605A609A60DA603B4600221A605A6020
:10158C001D4B4FF080421A601B4B41F63F725A6064
:10159C00194B00229A60184B0922DA60164B002274
:1015AC001A61154B00229A61134801F03FFB034668
:1015BC00002B01D000F086F84FF48053BB6007F18C
:1015CC00080319460C4801F0BDFC0346002B01D062
:1015DC0000F078F800233B6000237B603B46194603
:1015EC00054801F095FE0346002B01D000F06AF887
:1015FC0000BF1837BD4680BD4401002080B586B0C1
:10160C0000AF07F1080300221A605A609A60DA6092
:10161C00294B9B69284A43F004039361264B9B6931
:10162C0003F004037B607B68234B9B69224A43F0E5
:10163C0008039361204B9B6903F008033B603B68F4
:10164C0000224FF2F8111D4800F0FBFE00224FF66D
:10165C00FF711B4800F0F5FE4FF2F813BB6001233D
:10166C00FB6000233B6102237B6107F108031946F1
:10167C00124800F055FD4FF6FF73BB600123FB6071
:10168C0000233B6102237B6107F1080319460C48D8
:10169C0000F046FD4FF46063BB600023FB60012348
:1016AC003B6107F108031946044800F039FD00BFFF
:1016BC001837BD4680BD00BF001002400008014035
:1016CC00000C014080B400AF72B600BFFEE7000012
:1016DC0080B483B000AF00237B6038E024497A6883
:1016EC0013469B0013449B000B4400221A602049B4
:1016FC007A6813469B0013449B000B44043300226E
:10170C001A601B497A6813469B0013449B000B44D8
:10171C00083300221A6016497A6813469B0013445A
:10172C009B000B440C3300221A7011497A68134643
:10173C009B0013449B000B44103300221A600D4A8B
:10174C007B68134400221A707B6801337B607B68D2
:10175C00272BC3D9084B00221A60084B00221A60B1
:10176C00074B00221A7000BF0C37BD4680BC704777
:10177C008C010020AC04002030010020340100203A
:10178C002F010020B0B588B000AFF860B9607A6066
:10179C00514B1B68002B1BD1504AFB6813604F4AFE
:1017AC00BB6853604D4A7B6893604C4B00221A73A4
:1017BC004A4B00221A614A4B01221A70494B0022F3
:1017CC001A60454B1B680133434A136000237FE0CA
:1017DC00414B1B68272B04D9434B01221A70282339
:1017EC0076E00023FB610023BB6111E03B49BA6941
:1017FC0013469B0013449B000B4404331B68BA68CC
:10180C009A420BD3BB690133FB61BB690133BB61EA
:10181C00314B1B68BA699A42E8D300E000BF2E4BEB
:10182C001B687B6117E07B695A1E2C4879690B4653
:10183C009B000B449B001844284913469B001344FF
:10184C009B000B4404461D460FCD0FC42B68236030
:10185C007B69013B7B617B69FA699A42E3D31F493F
:10186C00FA6913469B0013449B000B44FA681A60F8
:10187C001A49FA6913469B0013449B000B4404332A
:10188C00BA681A601549FA6913469B0013449B0009
:10189C000B4408337A681A601049FA6913469B00A6
:1018AC0013449B000B440C3300221A700B49FA6949
:1018BC0013469B0013449B000B441033FA691A60C7
:1018CC00054B1B680133044A136000F0AFF8FB6949
:1018DC0018462037BD46B0BD300100208C010020D9
:1018EC00AC040020340100202F010020B0B584B0DE
:1018FC0000AF7860494B1B687A689A4203D2474B19
:10190C001B68002B04D1464B02221A70002380E086
:10191C00424B1B68012B15D1424B00221A60414BE4
:10192C0000225A603F4B00229A603E4B00221A73F1
:10193C003C4B00221A613C4B00221A70374B0022A0
:10194C001A6065E07B68FB6017E0FB685A1C354841
:10195C00F9680B469B000B449B0018443149134615
:10196C009B0013449B000B4404461D460FCD0FC433
:10197C002B682360FB680133FB60284B1B68013B21
:10198C00FA689A42E1D3254B1B68013BBB602549A1
:10199C00BA6813469B0013449B000B4400221A6048
:1019AC002049BA6813469B0013449B000B44043334
:1019BC0000221A601B49BA6813469B0013449B0013
:1019CC000B44083300221A601649BA6813469B0070
:1019DC0013449B000B440C3300221A701149BA6853
:1019EC0013469B0013449B000B44103300221A60D7
:1019FC000D4ABB68134400221A70084B1B68013B4C
:101A0C00064A1360054B1B68002B01D000F00EF842
:101A1C00012318461037BD46B0BD00BF3001002071
:101A2C002F0100208C010020AC04002080B483B076
:101A3C0000AF174B1B68002B25D0164B5B683B6027
:101A4C0000237B6019E013497A6813469B0013440A
:101A5C009B000B4404331B683A689A4205D10E4A2A
:101A6C007B68134401221A7004E00B4A7B68134410
:101A7C0000221A707B6801337B60054B1B687A6807
:101A8C009A42E0D300E000BF0C37BD4680BC7047E3
:101A9C00300100208C010020AC04002080B400AF89
:101AAC000F4B1B68002B17D00E4B5B68002B04D020
:101ABC000C4B5B68013B0B4A53600B4B1B680133AF
:101ACC00094A1360074B5B68002B05D1054B1B7B48
:101ADC000133DAB2034B1A7300BFBD4680BC7047AA
:101AEC00300100208C0100203401002080B584B02E
:101AFC0000AF484B1B68002B00F08780464B1B7BCC
:101B0C00002B00F082800023FB604AE0434AFB6814
:101B1C0013441B78002B2DD13F49FA6813469B00C8
:101B2C0013449B000B4404331A683D4B1B689A42C8
:101B3C0015D33949FA6813469B0013449B000B4498
:101B4C0004331A68364B1B68D11A3348FA681346AB
:101B5C009B0013449B000344043319601EE02E4980
:101B6C00FA6813469B0013449B000B440433002279
:101B7C001A6013E02849FA6813469B0013449B0033
:101B8C000B44043300221A602349FA6813469B0065
:101B9C0013449B000B440C3301221A70FB68013375
:101BAC00FB601C4B1B68FA689A42AFD322E01A4BBD
:101BBC001B68002B02D0184B1B689847164B1B7BDD
:101BCC00013BDAB2144B1A73134B9B68002B03D1F5
:101BDC000020FFF78BFE0DE00F4B1B68BB600E4B1C
:101BEC009B687B600020FFF781FE7A687968B86893
:101BFC00FFF7C8FD074B1B68002B03D0064B1B7B64
:101C0C00002BD4D1064B00221A6000BF1037BD4602
:101C1C0080BD00BF300100208C010020AC040020EE
:101C2C003401002080B485B000AF154B9B69144A79
:101C3C0043F001039361124B9B6903F00103BB60FA
:101C4C00BB680F4BDB690E4A43F08053D3610C4BDE
:101C5C00DB6903F080537B607B680A4B5B68FB603D
:101C6C00FB6823F0E063FB60FB6843F08063FB6080
:101C7C00044AFB68536000BF1437BD4680BC7047F4
:101C8C00001002400000014080B584B000AF7860C5
:101C9C007B681B68B3F1804F13D10C4BDB690B4A8B
:101CAC0043F00103D361094BDB6903F00103FB60D3
:101CBC00FB68002200211C2000F0FBF91C2000F026
:101CCC0014FA00BF1037BD4680BD00BF00100240A3
:101CDC0080B400AFFEE780B400AFFEE780B400AF85
:101CEC00FEE780B400AFFEE780B400AFFEE780B43F
:101CFC0000AF00BFBD4680BC704780B400AF00BFD2
:101D0C00BD4680BC704780B400AF00BFBD4680BCF0
:101D1C00704780B500AF00F0B5F800BF80BD000083
:101D2C0080B500AF024801F01DF800BF80BD00BFB8
:101D3C004401002080B586B000AF7860144A154B82
:101D4C00D31A7B617B693B61134B1B68002B02D15F
:101D5C00114B124A1A60104B1A687B6813443A698B
:101D6C009A4207D201F03EFB03460C221A604FF058
:101D7C00FF3309E0084B1B68FB60074B1A687B6854
:101D8C001344054A1360FB6818461837BD4680BDDE
:101D9C00002800200004000038010020E804002086
:101DAC0080B400AF00BFBD4680BC7047FFF7F8FFA2
:101DBC000B480C490C4A002302E0D458C45004339D
:101DCC00C4188C42F9D3094A094C002301E0136072
:101DDC000432A242FBD301F00BFBFFF759FB704717
:101DEC0000000020C0000020D03D0008C0000020F2
:101DFC00E8040020FEE7000080B500AF084B1B682C
:101E0C00074A43F010031360032000F047F90F203A
:101E1C0000F008F8FFF706FF0023184680BD00BF4E
:101E2C000020024080B582B000AF7860124B1A6877
:101E3C00124B1B7819464FF47A73B3FBF1F3B2FBD8
:101E4C00F3F3184600F05FF90346002B01D0012391
:101E5C000EE07B680F2B0AD8002279684FF0FF3018
:101E6C0000F027F9064A7B681360002300E0012389
:101E7C0018460837BD4680BD500000205800002091
:101E8C005400002080B400AF054B1B781A46054B5C
:101E9C001B681344034A136000BFBD4680BC7047E7
:101EAC0058000020D404002080B400AF024B1B6803
:101EBC001846BD4680BC7047D404002080B584B061
:101ECC0000AF7860FFF7F0FFB8607B68FB60FB68E1
:101EDC00B3F1FF3F05D00A4B1B781A46FB6813443D
:101EEC00FB6000BFFFF7E0FF0246BB68D31AFA683D
:101EFC009A42F7D800BF00BF1037BD4680BD00BF67
:101F0C005800002080B485B000AF78607B6803F087
:101F1C000703FB600C4BDB68BB60BA684FF6FF0332
:101F2C001340BB60FB681A02BB68134343F0BF63EA
:101F3C0043F40033BB60044ABB68D36000BF143762
:101F4C00BD4680BC704700BF00ED00E080B400AF20
:101F5C00044BDB681B0A03F007031846BD4680BC24
:101F6C00704700BF00ED00E080B483B000AF0346C3
:101F7C00FB7197F90730002B0BDBFB7903F01F0289
:101F8C00064997F907305B09012000FA02F241F883
:101F9C00232000BF0C37BD4680BC704700E100E039
:101FAC0080B483B000AF03463960FB7197F90730FA
:101FBC00002B0ADB3B68DAB20C4997F907301201A7
:101FCC00D2B20B4483F800230AE03B68DAB208492A
:101FDC00FB7903F00F03043B1201D2B20B441A76C7
:101FEC0000BF0C37BD4680BC704700BF00E100E06D
:101FFC0000ED00E080B489B000AFF860B9607A60A1
:10200C00FB6803F00703FB61FB69C3F10703042BB7
:10201C0028BF0423BB61FB690433062B02D9FB697F
:10202C00033B00E000237B614FF0FF32BB6902FAF7
:10203C0003F3DA43BB681A407B699A404FF0FF31D7
:10204C007B6901FA03F3D9437B680B4013431846B1
:10205C002437BD4680BC704780B582B000AF786035
:10206C007B68013BB3F1807F01D301230FE00A4A67
:10207C007B68013B53600F214FF0FF30FFF790FF5F
:10208C00054B00229A60044B07221A600023184665
:10209C000837BD4680BD00BF10E000E080B582B0BF
:1020AC0000AF78607868FFF72DFF00BF0837BD469A
:1020BC0080BD80B586B000AF0346B9607A60FB7313
:1020CC0000237B61FFF742FF78617A68B968786911
:1020DC00FFF790FF024697F90F3011461846FFF7AD
:1020EC005FFF00BF1837BD4680BD80B582B000AF22
:1020FC000346FB7197F907301846FFF735FF00BF11
:10210C000837BD4680BD80B582B000AF7860786876
:10211C00FFF7A2FF034618460837BD4680BD0000F6
:10212C0080B48BB000AF7860396000237B620023F1
:10213C003B6248E101227B6A02FA03F3FB613B68D4
:10214C001B68FA691340BB61BA69FB699A4240F09B
:10215C0037813B685B68A34A93425ED0A14A9342A5
:10216C0075D8A14A934258D09F4A93426FD89F4A40
:10217C00934252D09D4A934269D89D4A93424CD087
:10218C009B4A934263D89B4A934246D0994A9342C6
:10219C005DD8122B2AD8122B59D801A252F823F051
:1021AC0027220008012200081322000855220008EB
:1021BC005B2200085B2200085B2200085B220008FF
:1021CC005B2200085B2200085B2200085B220008EF
:1021DC005B2200085B2200085B2200085B220008DF
:1021EC005B220008092200081D220008824A934243
:1021FC0013D02CE03B68DB683B6229E03B68DB6872
:10220C0004333B6224E03B68DB6808333B621FE02D
:10221C003B68DB680C333B621AE03B689B68002B25
:10222C0002D104233B6213E03B689B68012B05D170
:10223C0008233B627B68FA691A6109E008233B6258
:10224C007B68FA695A6103E000233B6200E000BF3F
:10225C00BB69FF2B01D87B6801E07B6804337B6191
:10226C00BB69FF2B02D87B6A9B0002E07B6A083BB0
:10227C009B003B617B691A680F213B6901FA03F3F0
:10228C00DB431A40396A3B6901FA03F31A437B6951
:10229C001A603B685B6803F08053002B00F0908061
:1022AC00564B9B69554A43F001039361534B9B6911
:1022BC0003F00103BB60BB68514A7B6A9B08023385
:1022CC0052F82330FB607B6A03F003039B000F2260
:1022DC0002FA03F3DB43FA681340FB607B68494A5C
:1022EC0093420DD07B68484A934207D07B68474A9B
:1022FC00934201D1022304E0032302E0012300E016
:10230C0000237A6A02F0030292009340FA681343A6
:10231C00FB603B497B6A9B080233FA6841F8232037
:10232C003B685B6803F48013002B06D0384B9A682B
:10233C003749BB6913438B6006E0354B9A68BB6920
:10234C00DB43334913408B603B685B6803F4001339
:10235C00002B06D02E4BDA682D49BB691343CB609A
:10236C0006E02B4BDA68BB69DB4329491340CB6091
:10237C003B685B6803F40033002B06D0244B5A688F
:10238C002349BB6913434B6006E0214B5A68BB6978
:10239C00DB431F4913404B603B685B6803F480339D
:1023AC00002B06D01A4B1A681949BB6913430B60F2
:1023BC0006E0174B1A68BB69DB43154913400B60E9
:1023CC007B6A01337B623B681A687B6A22FA03F3EF
:1023DC00002B7FF4AFAE00BF00BF2C37BD4680BCD6
:1023EC00704700BF000032100000311000002210B6
:1023FC00000021100000121000001110001002400B
:10240C000000014000080140000C01400010014098
:10241C000004014080B485B000AF78600B467B802F
:10242C007B689A687B881340002B02D00123FB73D6
:10243C0001E00023FB73FB7B18461437BD4680BCC0
:10244C00704780B483B000AF78600B467B80134636
:10245C007B707B78002B03D07A887B681A6103E051
:10246C007B881A047B681A6100BF0C37BD4680BCA0
:10247C007047000080B586B000AF78607B68002B99
:10248C0001D101236CE27B681B6803F00103002B74
:10249C0000F08780924B5B6803F00C03042B0CD08C
:1024AC008F4B5B6803F00C03082B12D18C4B5B68D1
:1024BC0003F48033B3F5803F0BD1894B1B6803F4D5
:1024CC000033002B6CD07B685B68002B68D1012338
:1024DC0046E27B685B68B3F5803F06D1804B1B6896
:1024EC007F4A43F4803313602EE07B685B68002BDB
:1024FC000CD17B4B1B687A4A23F480331360784BE6
:10250C001B68774A23F4802313601DE07B685B68AB
:10251C00B3F5A02F0CD1724B1B68714A43F4802386
:10252C0013606F4B1B686E4A43F4803313600BE0EF
:10253C006B4B1B686A4A23F480331360684B1B682F
:10254C00674A23F4802313607B685B68002B13D0ED
:10255C00FFF7AAFC386108E0FFF7A6FC02463B69CE
:10256C00D31A642B01D90323FAE15D4B1B6803F4E6
:10257C000033002BF0D014E0FFF796FC386108E034
:10258C00FFF792FC02463B69D31A642B01D9032353
:10259C00E6E1534B1B6803F40033002BF0D100E051
:1025AC0000BF7B681B6803F00203002B63D04C4B0D
:1025BC005B6803F00C03002B0BD0494B5B6803F0FA
:1025CC000C03082B1CD1464B5B6803F48033002BA7
:1025DC0016D1434B1B6803F00203002B05D07B681C
:1025EC001B69012B01D00123BAE13D4B1B6823F081
:1025FC00F8027B685B69DB00394913430B603AE0F6
:10260C007B681B69002B20D0364B01221A60FFF728
:10261C004BFC386108E0FFF747FC02463B69D31AD4
:10262C00022B01D903239BE12D4B1B6803F0020302
:10263C00002BF0D02A4B1B6823F0F8027B685B69F7
:10264C00DB00274913430B6015E0264B00221A6070
:10265C00FFF72AFC386108E0FFF726FC02463B69CD
:10266C00D31A022B01D903237AE11D4B1B6803F00B
:10267C000203002BF0D17B681B6803F00803002BCE
:10268C003AD07B689B69002B19D0174B01221A603A
:10269C00FFF70AFC386108E0FFF706FC02463B69CD
:1026AC00D31A022B01D903235AE10D4B5B6A03F0B9
:1026BC000203002BF0D0012000F09AFA1CE00A4B28
:1026CC0000221A60FFF7F0FB38610FE0FFF7ECFB1C
:1026DC0002463B69D31A022B08D9032340E100BF01
:1026EC000010024000004242800442429E4B5B6A52
:1026FC0003F00203002BE9D17B681B6803F0040391
:10270C00002B00F0A6800023FB75974BDB6903F0D0
:10271C008053002B0DD1944BDB69934A43F08053CB
:10272C00D361914BDB6903F08053BB60BB68012321
:10273C00FB758E4B1B6803F48073002B18D18B4BED
:10274C001B688A4A43F480731360FFF7ADFB386152
:10275C0008E0FFF7A9FB02463B69D31A642B01D9A9
:10276C000323FDE0814B1B6803F48073002BF0D036
:10277C007B68DB68012B06D17B4B1B6A7A4A43F0E2
:10278C00010313622DE07B68DB68002B0CD1764BC8
:10279C001B6A754A23F001031362734B1B6A724A5E
:1027AC0023F0040313621CE07B68DB68052B0CD15F
:1027BC006D4B1B6A6C4A43F0040313626A4B1B6A31
:1027CC00694A43F0010313620BE0674B1B6A664ACC
:1027DC0023F001031362644B1B6A634A23F0040366
:1027EC0013627B68DB68002B15D0FFF75DFB38614B
:1027FC000AE0FFF759FB02463B69D31A41F28832D3
:10280C00934201D90323ABE0574B1B6A03F002033D
:10281C00002BEED014E0FFF747FB38610AE0FFF71E
:10282C0043FB02463B69D31A41F28832934201D9E9
:10283C00032395E04C4B1B6A03F00203002BEED1F3
:10284C00FB7D012B05D1484BDB69474A23F08053B4
:10285C00D3617B68DB69002B00F08180424B5B68A5
:10286C0003F00C03082B61D07B68DB69022B46D18B
:10287C003F4B00221A60FFF717FB386108E0FFF7A7
:10288C0013FB02463B69D31A022B01D9032367E0E1
:10289C00354B1B6803F00073002BF0D17B681B6A6F
:1028AC00B3F5803F08D1304B5B6823F400327B6872
:1028BC009B682D4913434B602B4B5B6823F47412BC
:1028CC007B68196A7B685B6A0B43274913434B602F
:1028DC00274B01221A60FFF7E7FA386108E0FFF78F
:1028EC00E3FA02463B69D31A022B01D9032337E0E2
:1028FC001D4B1B6803F00073002BF0D02FE01C4B1A
:10290C0000221A60FFF7D0FA386108E0FFF7CCFA22
:10291C0002463B69D31A022B01D9032320E0124B48
:10292C001B6803F00073002BF0D118E07B68DB69A7
:10293C00012B01D1012313E00B4B5B68FB60FB689F
:10294C0003F480327B681B6A9A4206D1FB6803F45D
:10295C0070127B685B6A9A4201D0012300E000236D
:10296C0018461837BD4680BD00100240007000406C
:10297C006000424280B584B000AF786039607B68FB
:10298C00002B01D10123D0E06A4B1B6803F0070335
:10299C003A689A4210D9674B1B6823F007026549C5
:1029AC003B6813430B60634B1B6803F007033A68E7
:1029BC009A4201D00123B8E07B681B6803F0020344
:1029CC00002B20D07B681B6803F00403002B05D080
:1029DC00594B5B68584A43F4E06353607B681B684F
:1029EC0003F00803002B05D0534B5B68524A43F4A9
:1029FC0060535360504B5B6823F0F0027B689B681C
:102A0C004D4913434B607B681B6803F00103002B9B
:102A1C0040D07B685B68012B07D1474B1B6803F4E4
:102A2C000033002B15D101237FE07B685B68022B00
:102A3C0007D1414B1B6803F00073002B09D1012314
:102A4C0073E03D4B1B6803F00203002B01D1012303
:102A5C006BE0394B5B6823F003027B685B6836499B
:102A6C0013434B60FFF720FAF8600AE0FFF71CFAFB
:102A7C000246FB68D31A41F28832934201D90323F0
:102A8C0053E02D4B5B6803F00C027B685B689B008A
:102A9C009A42EBD1274B1B6803F007033A689A4222
:102AAC0010D2244B1B6823F0070222493B681343C6
:102ABC000B60204B1B6803F007033A689A4201D065
:102ACC00012332E07B681B6803F00403002B08D061
:102ADC00194B5B6823F4E0627B68DB68164913438F
:102AEC004B607B681B6803F00803002B09D0124B6A
:102AFC005B6823F460527B681B69DB000E4913434F
:102B0C004B6000F021F802460B4B5B681B0903F08D
:102B1C000F030A49CB5C22FA03F3094A1360094BF1
:102B2C001B681846FFF77EF9002318461037BD4680
:102B3C0080BD00BF0020024000100240703D000824
:102B4C00500000205400002080B487B000AF002358
:102B5C00FB600023BB6000237B6100237B600023B0
:102B6C003B611E4B5B68FB60FB6803F00C03042BA2
:102B7C0002D0082B03D027E0194B3B6127E0FB6800
:102B8C009B0C03F00F03174AD35C7B60FB6803F4C8
:102B9C008033002B10D0114B5B685B0C03F00103EE
:102BAC00114AD35CBB607B680D4A02FB03F2BB6825
:102BBC00B2FBF3F37B6104E07B680C4A02FB03F38A
:102BCC007B617B693B6102E0054B3B6100BF3B696C
:102BDC0018461C37BD4680BC704700BF0010024031
:102BEC0000127A00803D0008903D000800093D006D
:102BFC0080B485B000AF78600A4B1B680A4AA2FB10
:102C0C0003235B0A7A6802FB03F3FB6000BFFB68DB
:102C1C005A1EFA60002BF9D100BF00BF1437BD4615
:102C2C0080BC704750000020D34D621080B582B03C
:102C3C0000AF78607B68002B01D1012341E07B68F9
:102C4C0093F83D30DBB2002B06D17B68002283F871
:102C5C003C207868FFF718F87B68022283F83D2047
:102C6C007B681A687B6804331946104600F056FAE4
:102C7C007B68012283F846207B68012283F83E2082
:102C8C007B68012283F83F207B68012283F8402077
:102C9C007B68012283F841207B68012283F8422063
:102CAC007B68012283F843207B68012283F844204F
:102CBC007B68012283F845207B68012283F83D2044
:102CCC00002318460837BD4680BD000080B485B08F
:102CDC0000AF78607B6893F83D30DBB2012B01D0FC
:102CEC00012335E07B68022283F83D207B681B685A
:102CFC00DA687B681B6842F00102DA607B681B684B
:102D0C00164A934209D07B681B68B3F1804F04D0FC
:102D1C007B681B68124A934211D17B681B689B68C5
:102D2C0003F00703FB60FB68062B10D07B681B6865
:102D3C001A687B681B6842F001021A6007E07B6826
:102D4C001B681A687B681B6842F001021A6000233A
:102D5C0018461437BD4680BC704700BF002C01409C
:102D6C000004004080B584B000AF78607B681B68BD
:102D7C00DB68FB607B681B681B69BB60BB6803F08E
:102D8C000203002B20D0FB6803F00203002B1BD0A6
:102D9C007B681B686FF002021A617B6801221A774C
:102DAC007B681B689B6903F00303002B03D07868D6
:102DBC0000F098F905E0786800F08BF9786800F07D
:102DCC009AF97B6800221A77BB6803F00403002B86
:102DDC0020D0FB6803F00403002B1BD07B681B681E
:102DEC006FF004021A617B6802221A777B681B68F9
:102DFC009B6903F44073002B03D0786800F072F9E0
:102E0C0005E0786800F065F9786800F074F97B6883
:102E1C0000221A77BB6803F00803002B20D0FB6854
:102E2C0003F00803002B1BD07B681B686FF00802B3
:102E3C001A617B6804221A777B681B68DB6903F0D4
:102E4C000303002B03D0786800F04CF905E0786898
:102E5C0000F03FF9786800F04EF97B6800221A7791
:102E6C00BB6803F01003002B20D0FB6803F01003A9
:102E7C00002B1BD07B681B686FF010021A617B68FB
:102E8C0008221A777B681B68DB6903F44073002BFC
:102E9C0003D0786800F026F905E0786800F019F99D
:102EAC00786800F028F97B6800221A77BB6803F079
:102EBC000103002B0CD0FB6803F00103002B07D09F
:102ECC007B681B686FF001021A617868FEF7D0FA14
:102EDC00BB6803F08003002B0CD0FB6803F080036D
:102EEC00002B07D07B681B686FF080021A61786832
:102EFC0000F06FFABB6803F04003002B0CD0FB68AA
:102F0C0003F04003002B07D07B681B686FF0400276
:102F1C001A61786800F0F8F8BB6803F02003002B06
:102F2C000CD0FB6803F02003002B07D07B681B68D8
:102F3C006FF020021A61786800F042FA00BF103777
:102F4C00BD4680BD80B584B000AF78603960002389
:102F5C00FB737B6893F83C30012B01D10223B4E066
:102F6C007B68012283F83C207B68022283F83D2099
:102F7C007B681B689B68BB60BB6823F07703BB60F6
:102F8C00BB6823F47F43BB607B681B68BA689A609C
:102F9C003B681B68B3F5005F3ED0B3F5005F00F2F1
:102FAC008780B3F5805F00F08680B3F5805F7FD8B3
:102FBC00702B1AD0702B7BD8602B50D0602B77D80D
:102FCC00502B3CD0502B73D8402B58D0402B6FD863
:102FDC00302B64D0302B6BD8202B60D0202B67D8B3
:102FEC00002B5CD0102B5AD062E07B6818683B68D1
:102FFC0099683B685A683B68DB6800F06AF97B6843
:10300C001B689B68BB60BB6843F07703BB607B6845
:10301C001B68BA689A604FE07B6818683B689968CF
:10302C003B685A683B68DB6800F053F97B681B68A7
:10303C009A687B681B6842F480429A603CE07B682B
:10304C0018683B6859683B68DB681A4600F0CAF898
:10305C007B681B685021184600F021F92CE07B6836
:10306C0018683B6859683B68DB681A4600F0E8F85A
:10307C007B681B686021184600F011F91CE07B6826
:10308C0018683B6859683B68DB681A4600F0AAF878
:10309C007B681B684021184600F001F90CE07B6846
:1030AC001A683B681B681946104600F0F8F803E0F4
:1030BC000123FB7300E000BF7B68012283F83D20F5
:1030CC007B68002283F83C20FB7B18461037BD46FA
:1030DC0080BD80B483B000AF786000BF0C37BD46B4
:1030EC0080BC704780B483B000AF786000BF0C37F1
:1030FC00BD4680BC704780B483B000AF786000BF21
:10310C000C37BD4680BC704780B483B000AF78608C
:10311C0000BF0C37BD4680BC7047000080B485B042
:10312C0000AF786039607B681B68FB607B682B4A5A
:10313C00934207D07B68B3F1804F03D07B68284A59
:10314C00934208D1FB6823F07003FB603B685B681B
:10315C00FA681343FB607B68204A934207D07B6874
:10316C00B3F1804F03D07B681D4A934208D1FB68B2
:10317C0023F44073FB603B68DB68FA681343FB6025
:10318C00FB6823F080023B685B691343FB607B6840
:10319C00FA681A603B689A687B68DA623B681A685E
:1031AC007B689A627B680D4A934203D13B681A692B
:1031BC007B681A637B6801225A617B681B6903F088
:1031CC000103002B05D07B681B6923F001027B688F
:1031DC001A6100BF1437BD4680BC7047002C0140FB
:1031EC000004004080B487B000AFF860B9607A602A
:1031FC00FB681B6A7B61FB681B6A23F00102FB689E
:10320C001A62FB689B693B613B6923F0F0033B61ED
:10321C007B681B013A6913433B617B6923F00A030A
:10322C007B617A69BB6813437B61FB683A699A617D
:10323C00FB687A691A6200BF1C37BD4680BC7047B8
:10324C0080B487B000AFF860B9607A60FB681B6A25
:10325C007B61FB681B6A23F01002FB681A62FB6837
:10326C009B693B613B6923F470433B617B681B03A7
:10327C003A6913433B617B6923F0A0037B61BB6814
:10328C001B017A6913437B61FB683A699A61FB689D
:10329C007A691A6200BF1C37BD4680BC704780B487
:1032AC0085B000AF786039607B689B68FB60FB6819
:1032BC0023F07003FB603A68FB68134343F0070389
:1032CC00FB607B68FA689A6000BF1437BD4680BC0F
:1032DC00704780B487B000AFF860B9607A603B602B
:1032EC00FB689B687B617B6923F47F437B613B6854
:1032FC001A027B681A43BB6813437A6913437B61D8
:10330C00FB687A699A6000BF1C37BD4680BC704769
:10331C0080B485B000AF786039607B6893F83C303E
:10332C00012B01D1022341E07B68012283F83C2070
:10333C007B68022283F83D207B681B685B68FB601E
:10334C007B681B689B68BB60FB6823F07003FB60A9
:10335C003B681B68FA681343FB607B681B68FA6860
:10336C005A607B681B68144A934209D07B681B68BF
:10337C00B3F1804F04D07B681B68104A93420CD188
:10338C00BB6823F08003BB603B685B68BA6813437F
:10339C00BB607B681B68BA689A607B68012283F803
:1033AC003D207B68002283F83C200023184614370C
:1033BC00BD4680BC704700BF002C0140000400409B
:1033CC0080B483B000AF786000BF0C37BD4680BCC2
:1033DC00704780B483B000AF786000BF0C37BD4637
:1033EC0080BC7047014B1868704700BF5C00002020
:1033FC0070B500260C4D0D4C641BA410A64209D1CF
:10340C0000F070FC00260A4D0A4C641BA410A64266
:10341C0005D170BD55F8043B98470136EEE755F8D9
:10342C00043B98470136F2E7C83D0008C83D000848
:10343C00C83D0008CC3D000803460244934200D12D
:10344C00704703F8011BF9E70CB430B5174B0C1E91
:10345C001D689DB008DA8B234FF0FF302B601DB038
:10346C00BDE8304002B070474FF40273ADF8143031
:10347C000CBF234604F1FF33049307934FF6FF73FD
:10348C0002900690ADF81630284621AB209A02A97E
:10349C00019300F069F8431CBCBF8B232B60002CFC
:1034AC00DDD00022029B1A70D9E700BF5C0000201F
:1034BC002DE9F0478E6882469E420C4690461F4688
:1034CC0038D88A8912F4906F32D025680969013393
:1034DC00A5EB010965694B4405EB450505EBD57575
:1034EC006D109D4238BF1D46530531D5294600F05D
:1034FC0053FB064650B90C234FF0FF30CAF800308E
:10350C00A38943F04003A381BDE8F0874A462169B3
:10351C0000F0CEFAA38923F4906343F08003A381D7
:10352C0026614E4426603E466561A5EB0905A56003
:10353C00BE4200D93E4632464146206800F0C6FAEB
:10354C00A36822689B1B32440020A3602260DBE747
:10355C002A4600F07BFB06460028E1D15046216943
:10356C0000F0CEFAC7E700002DE9F04F98468B89A2
:10357C0007461B060D4614469DB00ED50B6963B964
:10358C00402100F009FB2860286120B90C233B6026
:10359C004FF0FF30D1E040236B61002309932023CF
:1035AC008DF8293030234FF00109CDF80C80DFF86D
:1035BC00A4818DF82A3023469A4613F8012B0AB1C0
:1035CC00252AF9D1BAEB040B0BD05B4622462946CF
:1035DC003846FFF76DFF013000F0AA80099A5A4473
:1035EC0009929AF80030002B00F0A28000234FF0D3
:1035FC00FF32CDE905230AF1010A049307938DF8F4
:10360C0053301A935446052214F8011B514800F00C
:10361C0041FA049AD8B9D00644BF20238DF8533010
:10362C00110744BF2B238DF853309AF800302A2B06
:10363C0015D0544600204FF00A0C079A214611F879
:10364C00013B303B092B4ED9B0B1079214E0A0EBF3
:10365C00080309FA03F31343A2460493D2E7039B2E
:10366C00191D1B680391002BBBBF5B4242F0020289
:10367C0007930793B8BF049223782E2B0CD1637851
:10368C002A2B35D1039B02341A1D1B680392002B85
:10369C00B8BF4FF0FF330593DFF8C8A003225046A4
:1036AC00217800F0F7F940B14023A0EB0A0003FAAF
:1036BC0000F0049B01340343049314F8011B06220D
:1036CC0025488DF8281000F0E5F9002838D0234B58
:1036DC001BBB039B073323F0070308330393099B9E
:1036EC003344099367E70C4601200CFB0232A5E733
:1036FC0000234FF00A0C194601340593204610F8AC
:10370C00012B303A092A03D9002BC5D00591C3E708
:10371C00044601230CFB0121F0E703AB00932A467E
:10372C0038460F4B04A9AFF30080421C0646D6D195
:10373C00AB895B063FF52CAF09981DB0BDE8F08F47
:10374C0003AB00932A463846054B04A900F07CF8DD
:10375C00EBE700BF923D00089C3D00080000000014
:10376C00BD340008983D00082DE9F04716469946EF
:10377C008A680B6907469342B8BF1346336091F8C9
:10378C0043200C46DDF820800AB1013333602368F6
:10379C00990642BF336802333360256815F006057D
:1037AC0006D104F1190AE36832689B1AAB4228DC93
:1037BC0094F84320131E226818BF012392062DD4BF
:1037CC004946384604F14302C047013020D02368F3
:1037DC00E56803F00603042B18BF002532684FF090
:1037EC000006A36808BFAD1A226908BF25EAE57573
:1037FC009342C4BF9B1AED181A34B5421AD100205B
:10380C0008E00123524649463846C047013003D1EF
:10381C004FF0FF30BDE8F0870135C4E73020E118E8
:10382C0081F843005A1C94F845102244023382F864
:10383C004310C5E70123224649463846C0470130AC
:10384C00E6D00136D9E700002DE9FF470C46277E6C
:10385C009146782F80469A460C9904F1430207D87A
:10386C00622F0AD8002F00F0D980582F00F0A480C6
:10387C0004F1420684F842703AE0A7F16303152B79
:10388C00F6D801A050F823F0ED38000801390008F3
:10389C007D3800087D3800087D3800087D38000828
:1038AC00013900087D3800087D3800087D38000893
:1038BC007D3800080F3A000831390008F13900084A
:1038CC007D3800087D380008313A00087D38000842
:1038DC00313900087D3800087D380008F9390008B6
:1038EC000B6804F142061A1D1B680A6084F842300A
:1038FC000123A4E0256808682E0600F104030AD50C
:10390C0005680B60002D03DA2D236D4284F84330DB
:10391C000A235E4819E015F0400F05680B6018BFCC
:10392C002DB2EFE70B682568181D0860280601D535
:10393C001D6802E06906FBD51D886F2F0CBF08239C
:10394C000A235248002184F843106668002EA8BF51
:10395C002168A660A4BF21F0040121600DB9002EDE
:10396C004DD01646B5FBF3F103FB1157C75D06F8B6
:10397C00017D2F46BB420D46F4D9082B0BD1236891
:10398C00DF0708D5236961689942DEBF302306F84A
:10399C00013C06F1FF36921B22614B462146404604
:1039AC00CDF800A003AAFFF7DFFE01304CD14FF099
:1039BC00FF3004B0BDE8F087344884F845700E68D9
:1039CC00236856F8045B1F060E6014D5D90744BF54
:1039DC0043F0200323601DB9236823F020032360E8
:1039EC001023AFE7236843F0200323607823284893
:1039FC0084F84530E3E75E0648BFADB2E6E716460D
:103A0C00BBE70B6826681D1D60690D6035061B68D9
:103A1C0001D5186002E07106FBD51880002316460C
:103A2C002361BAE70B681A1D0A601E680021304634
:103A3C00626800F02FF808B1801B60606368236136
:103A4C00002384F84330A8E73246494640462369B0
:103A5C00D0470130ABD023689B0713D4E068039B9D
:103A6C009842B8BF1846A4E701233246494640465F
:103A7C00D04701309BD00135E36803995B1AAB4208
:103A8C00F2DCEBE7002504F11906F5E7A33D00088D
:103A9C00B43D0008034610B5C9B20244934218461F
:103AAC0001D1002003E0047801338C42F6D110BD23
:103ABC000A44914200F1FF3300D1704710B511F860
:103ACC00014B914203F8014FF9D110BD884210B55A
:103ADC0001EB020402D98442234607D8431EA142BB
:103AEC0008D011F8012B03F8012FF8E70146024426
:103AFC008A4200D110BD13F8014D02F8014DF7E7D1
:103B0C0038B50546002943D051F8043C0C1F002B56
:103B1C00B8BFE41800F0D0F81E4A1368104633B949
:103B2C00636014602846BDE8384000F0CBB8A3426F
:103B3C000AD921686218934201BF1A685B6852184F
:103B4C00226063600460EDE71A465B680BB1A34228
:103B5C00FAD911685018A0420BD1206801445018B2
:103B6C0083421160DED118685B68014411605360B8
:103B7C00D8E702D90C232B60D4E7206821188B429C
:103B8C0001BF19685B680918216063605460C9E75C
:103B9C0038BD00BF3C010020F8B5CD1C25F0030555
:103BAC0008350C2D38BF0C25002D064601DBA9422B
:103BBC0003D90C2333600020F8BD00F07DF82149B7
:103BCC000A6814469CB9204F3B6823B921463046FD
:103BDC0000F062F838602946304600F05DF8431C6E
:103BEC0023D10C233046336000F06CF8E3E72368F4
:103BFC005B1B17D40B2B03D923601C44256004E0FA
:103C0C006368A2420CBF0B605360304600F05AF858
:103C1C0004F10B00231D20F00700C21ACCD01B1A94
:103C2C00A350C9E722466468CCE7C41C24F0030403
:103C3C00A042E3D0211A304600F02EF80130DDD13D
:103C4C00CFE700BF3C01002040010020F8B507463B
:103C5C0014460E4621B91146BDE8F840FFF79CBF4B
:103C6C0022B9FFF74DFF25462846F8BD00F030F885
:103C7C00A0420FD221463846FFF78EFF054600289A
:103C8C00F2D031462246FFF713FF31463846FFF794
:103C9C0037FFE9E73546E7E738B50023054D04461D
:103CAC0008462B60FEF746F8431C02D12B6803B183
:103CBC00236038BDD8040020014800F011B800BFC3
:103CCC00E0040020014800F00CB800BFE004002024
:103CDC0051F8043C181F002BBCBF0B58C018704780
:103CEC0070477047F8B500BFF8BC08BC9E467047DB
:0C3CFC00F8B500BFF8BC08BC9E4670473D
:103D080052554E202000000041444A2D5200000028
:103D180041444A2D5900000041444A2D4700000003
:103D28003F3F3F3F3F000000257320523A25303285
:103D38006420473A25303264202000002573205340
:103D480045543A25303264202020202020000000ED
:103D58005264313A2530326420205264323A253098
:103D68003264202000000000000000000000000075
:103D780001020304060708090203040506070809E7
:103D88000A0B0C0D0E0F10100102232D302B2000F2
:103D9800686C4C00656667454647003031323334FD
:103DA800353637383941424344454600303132339D
:103DB800343536373839616263646566000000005F
:043DC80031010008BD
:043DCC000D010008DD
:103DD00001000000010000000100000001000000DF
:103DE00001000000010000000100000001000000CF
:103DF00001000000010000000100000001000000BF
:103E00006400000064000000640000000A0000007C
:103E10000500000002000000030000000100000097
:103E200000127A0010000000010000006000002075
:103E30000000000000000000000000000000000082
:103E40000000000000000000000000000000000072
:103E50000000000000000000000000000000000062
:103E60000000000000000000000000000000000052
:103E70000000000000000000000000000000000042
:103E80000000000000000000000000000000000032
:0400000508001DB919
:00000001FF
